:1000000007C1000022C100000C949B0F1EC100001C
:100010001CC100001AC1000018C1000016C1000078
:1000200014C1000012C1000010C100000EC1000088
:100030000CC100000AC100000C94650D06C100004F
:1000400004C1000002C1000000C10000FEC00000A9
:100050000C94E70FFAC00000F8C00000F6C00000E2
:10006000F4C00000F2C00000F0C00000EEC00000CC
:10007000ECC00000EAC00000E8C00000E6C00000DC
:10008000E4C00000E2C00000E0C00000DEC00000EC
:10009000DCC00000DAC00000D8C00000D6C00000FC
:1000A000D4C00000D2C00000D0C00000CEC000000C
:1000B000CCC00000CAC00000C8C00000C6C000001C
:1000C000C4C00000C2C00000C0C00000BEC000002C
:1000D000BCC00000BAC00000B8C00000B6C000003C
:1000E000B4C00000B2C00000B0C00000AEC000004C
:1000F000ACC00000AAC00000A8C00000A6C000005C
:100100000C944E0F0C94740FA0C000009EC0000011
:100110009CC000009AC0000098C0000096C000007B
:1001200094C0000092C0000090C000008EC000008B
:100130008CC000008AC0000088C0000086C000009B
:1001400084C0000082C0000080C000007EC00000AB
:100150007CC000007AC0000078C0000076C00000BB
:1001600074C0000072C0000070C000006EC00000CB
:100170006CC000006AC0000068C0000066C00000DB
:1001800064C0000062C0000060C000005EC00000EB
:100190005CC000005AC0000058C0000056C00000FB
:1001A00054C0000052C0000050C000004EC000000B
:1001B0004CC000004AC0000048C0000046C000001B
:1001C00044C0000042C0000040C000003EC000002B
:1001D0003CC000003AC0000038C0000036C000003B
:1001E00034C0000032C0000030C000002EC000004B
:1001F0002CC00000AFC7000028C000003C04600411
:100200002805600428059604AA042805FE040705AD
:1002100011241FBECFEFCDBFDFE2DEBF11E2A0E0B1
:10022000B0E2E4E3F1E202C005900D92AA31B10719
:10023000D9F725E2AAE1B1E201C01D92AB3DB207B8
:10024000E1F70E94E00C0C949810DACE292F3327A6
:100250002230310559F02330310569F02130310564
:1002600009F582E190E02BE930E225C08EE390E0D1
:100270002DE530E220C099278130910549F018F032
:10028000029759F014C084E090E029E530E213C0F1
:100290008CE190E02BE330E20EC086E190E023E2B7
:1002A00030E209C080E090E020E030E004C080E06F
:1002B00090E020E030E0FA01208331830895CF936D
:1002C000DF93DC01942F9F709A3030F0FD0131965E
:1002D000995C12969C9305C0FD013196905D129633
:1002E0009C93DB01CA01807F9927AA27BB276894CA
:1002F00013F8B695A795979587951694D1F78A30F8
:1003000028F0EF012197895C808304C0EF012197D9
:10031000805D8083852F8F708A3018F0895C888398
:1003200002C0805D8883DF91CF910895AF92BF9224
:10033000CF92DF92EF92FF920F931F93CF93DF93B1
:10034000CDB7DEB72B97CDBFDEBFC982DA82EB8295
:10035000FC820D831E832F83388749875A876B87DA
:10036000EE2069F1DE0114965C01AC014F5F5F4F36
:10037000EA948E010E0D111D0B5F1F4F9D91292FC9
:1003800022952F702A3028F0BA01295CF5012083CC
:1003900004C0BA01205DF50120839F709A3020F0DF
:1003A000995CFB01908303C0905DFB019083F2E0B8
:1003B000AF0EB11C4E5F5F4FA017B107F9F62B9639
:1003C000CDBFDEBFDF91CF911F910F91FF90EF90D6
:1003D000DF90CF90BF90AF900895CF92DF92EF92D1
:1003E000FF920F931F93CF93DF93EB019C0199230F
:1003F00024F422273327281B390BC22ED32E8E013B
:100400000D5F1F4FFE0128EE33E00AC08EE28B83A2
:10041000842F952FB9010E940C10605D6C8320C061
:1004200031967F0181E0E81AF1088C2D9D2DB901EC
:100430000E940C10605DD7016C93C82ED92E482FF6
:10044000592FADECBCEC0E9426109C0136952795E7
:100450003695279536952795E017F10709F7D6CFFA
:10046000DF91CF911F910F91FF90EF90DF90CF9090
:100470000895CF93DF93EC01FC0170968BE0DF01D0
:100480001D928A95E9F782E08C83898783E08E87C5
:1004900061E0CE010196E2D4882351F061E0CE0103
:1004A0000696DCD4882321F061E0CE010B96D6D4E9
:1004B000DF91CF910895CF93FC0190913721943033
:1004C000F9F484899589A689B789892B8A2B8B2B86
:1004D000C9F0C62F8181B8D38091402190914121EC
:1004E000FC01EF5BFF4F208131978081281720F0BE
:1004F00063D34ED5811107C08C2F96D380E003C003
:1005000082E001C082E0CF910895FB01682F8485CD
:100510009585D1DF21E030E0811102C020E030E09C
:1005200088279927821B930B0895CF93DF93FC01B3
:10053000909137219430D1F584899589A689B7891E
:10054000892B8A2B8B2BA1F181817ED38091442131
:1005500088234CF4E0914021F0914121EF5BFF4F63
:10056000808190E00DC02091402130914121F9011E
:10057000E05CFF4F80813196208190E0821B9109E1
:10058000892BC1F08091402190914121FC01EF5BCA
:10059000FF4FD0813197C0810FD3DC1768F0F8D4BA
:1005A000C82F81110BC008D38C2F08C082E006C071
:1005B00082E004C080E002C080E000C0DF91CF9103
:1005C0000895CF93DF93FC0190913721943081F40B
:1005D00084899589A689B789892B8A2B8B2B41F031
:1005E000EF01818131D370D3882311F0CE019DDFDB
:1005F000DF91CF910895CF93DF932091372124305D
:1006000009F052C0FC014489558966897789452BD8
:10061000462B472B09F44BC0868116D361D3882320
:1006200009F448C08091442188234CF4E091402192
:10063000F0914121EF5BFF4F808190E00DC0209150
:10064000402130914121F901E05CFF4F80813196DA
:10065000208190E0821B9109892B21F0D5D2C82FEF
:10066000D0E002C0CFEFDFEF8091442188234CF42B
:10067000E0914021F0914121EF5BFF4F208130E07C
:100680000DC04091402150914121FA01E05CFF4FA3
:1006900020813196808130E0281B3109232B69F4B9
:1006A000A4D28C2F9D2F0BC08FEF9FEF08C08FEF30
:1006B0009FEF05C08FEF9FEF02C08C2F9D2FDF9122
:1006C000CF910895FC018485958595DF992314F4D5
:1006D0008EEF9FEF0895FB012EE0DB011D922A951E
:1006E000E9F723E0238325E832E02087318722E6FB
:1006F00033E0228733878487958708950895FF9292
:100700000F931F93CF93DF93EC0103D3882309F456
:100710007EC0888190E020913C2130913D212817B6
:10072000390709F074C080913921813259F018F4E9
:10073000803229F16CC0823209F450C0833209F44E
:100740005CC065C080913821813A09F060C0FAD25E
:10075000BBD28823E9F38C89FD880E891F8964D276
:100760008F2D62D2802F60D2812F5ED2888D5CD295
:10077000898D5AD28A8D58D21FD2F3D348C0809126
:100780003821813209F043C0DDD205C08091372184
:10079000882309F43CC0A4D28823C1F335D2F82EB3
:1007A00033D2182F31D2082F2FD2402F50E060E0E3
:1007B00070E0BA0155274427782B4F29512B4C8BD9
:1007C0005D8B6E8B7F8B20D2888F1ED2898F1CD23F
:1007D0008A8F0BD2C6D3CE0191DF19C08091382108
:1007E0008132A9F4AFD2BDD380913A2190913B21BF
:1007F000888B998BCE0182DF0AC0809138218132AB
:1008000031F4A0D2AED360913A21CE0177DFDF91EF
:10081000CF911F910F91FF900895EF92FF920F9348
:100820001F93CF93DF93CDB7DEB7EA97CDBFDEBF7F
:1008300008E311E20F2EF0E4EF2EF1E2FF2EF02D8F
:10084000E3D1F80181938F01EE16FF06C9F70E94EC
:10085000B90C5FD2882309F4FBC0E8E3F1E2208100
:100860003181832F90E08A30910508F0F1C0FC01BE
:10087000E250FF4F0C942010203821F0223809F06C
:10088000E7C008C01091342180913521882381F080
:1008900012600EC080913C218F70D6D1E091422130
:1008A000F0914321118112FB112710F980E0CCD186
:1008B00049D2812FB9D180E0B7D17ED152D3C8C0FF
:1008C000222309F4CBC0223009F0C2C0CCC081E0A1
:1008D000333009F080E08093352123C0E0913C2142
:1008E0001E2F1F7009F4B4C0812FAED18091392121
:1008F000833011F453D215C0E0914221F09143218D
:1009000081818B7F818324E8129FF0011124EA57B3
:10091000FE4D1082E0914221F091432180818E7F33
:10092000808380E091D10ED21CD392C0211190C05F
:1009300010913A211F7706D214D3C6D18823E9F348
:100940001093C304111102C082E001C083E08093C0
:1009500037217EC02058223008F07AC080913A2199
:1009600090913B218C3DE3E09E0709F037C083E086
:100970008A838AE389830FB7F894AE014D5F5F4F96
:1009800060E078E020EC31E012E0F9011287872F77
:1009900090E0A0E0B0E0ABBFFC019791892FF90196
:1009A000128660FF03C082958F707F5F8F708A30E0
:1009B00018F090E0C79602C090E0C096FA018193CB
:1009C0009193AF016F5F6C3101F70FBFBBD16AE349
:1009D00070E0CE01019668D008D13AC0AE014F5FF9
:1009E0005F4F60913C2132DC8C01892B89F1AAD1C7
:1009F000B80189819A8158D0F8D02AC0203841F5B1
:100A0000A1D18091332110D1D7D0ABD221C02111F7
:100A10001FC080913A2190913B2199270297C4F4FD
:100A200091D180913A21809333219BD280913321BF
:100A3000882321F084E08093372109C08091C3048A
:100A4000811102C081E001C084E08093372187D703
:100A500060D1882371F076D1A1D10BC080913A2169
:100A60008130B1F734CF80913A21882309F436CF11
:100A700058CFEA96CDBFDEBFDF91CF911F910F9186
:100A8000FF90EF9008950895CF93809137218823A8
:100A900049F0C091442180E0D7D03BD18111BDDE27
:100AA0008C2FD2D0CF910895CF92DF92EF92FF9208
:100AB0000F931F93CF93DF93C82ED92E8B01809174
:100AC00044218068C1D0C0913E21D0913F21C01700
:100AD000D10738F00115110519F46ED0E80101C0F5
:100AE000E801EC2CFD2CD12C44C0809137218823C7
:100AF00009F450C0853009F44FC00BD181114EC0AC
:100B0000EFD0811142C0E0D0882399F18091442137
:100B1000882374F4E0914021F0914121EF5BFF4F75
:100B2000008110E02097F1F00830110578F01AC02C
:100B30008091402190914121FC01E05CFF4F0081B8
:100B40003196808110E0081B1109ECCFF7018191EB
:100B50007F016AD021970F5F1F4F209719F008304F
:100B60001105A1F7DD24D3940830110509F0D12C2B
:100B700023D0209709F0B9CFD110B7CF06C080910C
:100B80003721882369F0853069F0AAD08823B9F32A
:100B900080E009C082E007C083E005C081E003C0B7
:100BA00082E001C083E0DF91CF911F910F91FF9010
:100BB000EF90DF90CF900895E0914221F091432192
:100BC000A0914021B0914121AF5BBF4F8C9190E04B
:100BD0008283938380818D798083E0914021F0919D
:100BE0004121EF5BFF4F10820895E0914221F09187
:100BF000432180818D798083E0914021F0914121D2
:100C0000EF5BFF4F10820895809140219091412128
:100C1000FC01EF5BFF4F208131E0320F3083FC019C
:100C2000E20FF11D808108952091402130914121F2
:100C3000F901EF5BFF4F908141E0490F4083F901DB
:100C4000E90FF11D8083089580934421282F2F7090
:100C500030E04091C6045091C7048823E4F464E86E
:100C6000629FC001639F900D112489579E4D809310
:100C7000402190934121C90182959295907F9827B8
:100C8000807F982708969A01280F391F20934221C8
:100C900030934321089564E8629FC001639F900DE3
:100CA00011248B5B9E4D809340219093412122958E
:100CB0003295307F3227207F3227240F351F209333
:100CC0004221309343210895809144218068BCDF04
:100CD000E0914221F09143218081869581700895B1
:100CE000809144218F77B0DFE0914221F091432140
:100CF000808185FF0CC0809140219091412122810B
:100D00003381FC01E05CFF4F208381E0089580E0A7
:100D10000895809144218F7797DFE0914221F091EF
:100D20004321808184FF0CC080914021909141211A
:100D300022813381FC01E05CFF4F208381E0089534
:100D400080E00895809144218F777EDFE0914221F9
:100D5000F091432180818D788083E0914221F09150
:100D60004321808181608083E0914021F091412185
:100D7000EF5BFF4F108280914421806865DFE09136
:100D80004221F0914321808181608083E091402164
:100D9000F0914121EF5BFF4F10820895E0914221D5
:100DA000F0914321818184608183E0914221F0911F
:100DB00043218181807C803459F480914421805882
:100DC00043DFE0914221F09143218181846081835E
:100DD00008951F93CF93DF93D82F162FC42F34DF9E
:100DE000E0914221F09143211182E0914221F09162
:100DF0004321DD23A4F01082E0914221F0914321B0
:100E00001183E0914221F09143211282138280915B
:100E10004021909141218483958340E014C082E079
:100E20008083E0914221F09143211183E09142219E
:100E3000F0914321128213828091402190914121AF
:100E4000848395834C2FFC01E05CFF4F40833196F7
:100E5000108281E0DF91CF911F910895CF92DF92B0
:100E6000EF92FF920F931F93CF93DF93662309F4C2
:100E70004AC0C62E082F192FD12CF801E080EE2091
:100E8000D9F1C181D28143818481823010F438E06C
:100E900001C038E1C930D10550F088E090E020E091
:100EA0002F5F880F991F8C179D07D0F301C020E09A
:100EB000232B8E2D8F7090E005973CF52F7EC1344B
:100EC000D10528F5442319F0413021F006C02064F3
:100ED000F22E07C0206CF22E09C02068F22E4111BC
:100EE00005C04C2F6F2D80E88E0D73DF4C2F6F2DBA
:100EF0008E2D6FDF882361F0D3940B5F1F4FCD10D1
:100F0000BCCF81E005C081E003C080E001C080E08B
:100F1000DF91CF911F910F91FF90EF90DF90CF90D5
:100F2000089520E030E0A0ECB4E01696ED91FC913D
:100F30001797C90182959295907F9827807F98276F
:100F4000E80FF91F118616964D915C911797FA01DB
:100F5000E80FF91F11822F5F3F4F2530310529F728
:100F6000089580913821882374F404C0809137213A
:100F7000882369F0B5DE8823C9F337CE08958091C0
:100F80003721882321F0A0DE8823C9F315CE0895E8
:100F9000FF920F931F93CF93DF93E091C604F091DC
:100FA000C704E05BFF4FC081D1810F2EF4E6FF2E16
:100FB000F02D00EC14E002C0F22EEC0180914421EF
:100FC000882324F481DE882321F022C089DE811168
:100FD00021C0809137218823F9F08530F9F0E09124
:100FE0004221F0914321818182FD1AC0D8011696D9
:100FF000ED91FC911797E05BFF4F80819181C817BD
:10100000D907D9F22FEF2F0DF110D6CF84E009C008
:1010100080E007C080E005C082E003C083E001C03B
:1010200081E0DF91CF911F910F91FF900895809102
:101030002C2480FF04C088E38093440002C01092F7
:10104000440080912C2483FF06C0E0E4F0E084811A
:101050008160848305C0E0E4F0E084818360848360
:101060006CD072D0E0ECF4E080818F778083808157
:10107000806880831092372110923321109235219D
:101080001092342180912C2480FF04C080818F7BBA
:10109000808305C0E0ECF4E080818064808348E0D8
:1010A00068E480E896DE48E068E480E092DEE0EC08
:1010B000F4E08085806480878181816081830895E8
:1010C000CF93DF9380932C242FB7F894C0ECD1E01A
:1010D00082E08A87EAE1F0E0E491A0ECB4E0DA96FD
:1010E000EC93DA97EBE1F0E0E491DB96EC93DB979D
:1010F0001A868AED93E28E7F16968D939C931797AE
:1011000084E18C9380912C2482FF04C083E080933F
:10111000C8040BC080912C2481FF04C082E080931E
:10112000C80403C081E08093C8042FBF81E080938E
:1011300036217DDFDF91CF910895E0ECF4E08085EA
:101140008370808711860895E0ECF4E08FEF82874A
:10115000848708951F920F920FB60F9211242F9338
:101160003F934F935F936F937F938F939F93AF932F
:10117000BF93EF93FF938091CA04882344F4809136
:10118000C804882324F480E88093CA047CDC80911E
:10119000CA0486FF06C080E48093CA0410923721F7
:1011A000DCD38091CA0485FF15C080E28093CA0415
:1011B00080913321882321F084E08093372109C076
:1011C0008091C304811102C081E001C083E080935B
:1011D0003721C4D38091CA0484FF14C0E0ECF4E04A
:1011E00080E1828782E0809337211092332113823D
:1011F00098DE48E068E480E8ECDD48E068E480E000
:10120000E8DD41DCFF91EF91BF91AF919F918F910C
:101210007F916F915F914F913F912F910F900FBEF2
:101220000F901F901895E0ECF8E0928192838383F1
:1012300082818823ECF78091C30808951F93CF9390
:10124000DF93C0E4D6E010E11E8380ECECDF1D8369
:10125000DF91CF911F9108951F93CF93DF93C0E645
:10126000D6E010E11E8380ECDEDF1D83DF91CF919D
:101270001F9108951F93CF93DF93C0E2D6E018E04B
:101280001E8380ECD0DF1D83DF91CF911F910895E5
:101290001F93CF93DF93182FD62FC42F85E0C3DF82
:1012A000812FC1DF8D2FBFDF8C2FBDDFDF91CF916D
:1012B0001F9108951F93CF93DF93213039F4C0E439
:1012C000D6E010E11E83E4DF1D8311C0223039F423
:1012D000C0E6D6E010E11E83DBDF1D8308C02330AB
:1012E00031F4C0E2D6E018E01E83D2DF1D83DF9127
:1012F000CF911F9108951F93CF93DF93C0E4D6E061
:1013000010E11E83C5DF1D83DF91CF911F910895EA
:101310001F93CF93DF93C0E6D6E010E11E83B8DFC2
:101320001D83DF91CF911F9108951F93CF93DF937A
:10133000C0E2D6E018E01E83ABDF1D83DF91CF91C2
:101340001F910895813039F018F0823039F00895F6
:1013500081E869CF089582E866CF089584E863CF75
:1013600008951F93CF93DF93C0E4D6E010E11E836E
:10137000E9DF1D83DF91CF911F9108951F93CF93D4
:10138000DF93C0E6D6E010E11E83DCDF1D83DF9132
:10139000CF911F9108951F93CF93DF93C0E2D6E0C2
:1013A00018E01E83CFDF1D83DF91CF911F91089539
:1013B0000F931F93CF938B01880F805C34DFF8016C
:1013C0008081918196958795969587959695879535
:1013D0002ADFF80180818295880F807E24DF80E0FB
:1013E00022DF80E020DFF80182818F701CDFF801AE
:1013F0008281882359F0C0E0F801EC0FF11D838150
:1014000012DFCF5FF8018281C817B0F3CF911F912F
:101410000F9108951F93CF93DF93C0E4D6E010E1BE
:101420001E83C6DF1D83DF91CF911F9108951F9307
:10143000CF93DF93C0E6D6E010E11E83B9DF1D83B2
:10144000DF91CF911F9108951F93CF93DF93C0E257
:10145000D6E018E01E83ACDF1D83DF91CF911F9192
:1014600008950F931F93CF93DF938B01DCDE80E011
:10147000DADE98E0899FE001112480E0D4DE8295D5
:1014800086958770C82B80E0CEDE80E0CCDEF80148
:10149000C083D18380E0C7DE8F70F8018283882308
:1014A00061F0C0E080E0BFDEF801EC0FF11D838346
:1014B000CF5FF8018281C817A8F381E0DF91CF9157
:1014C0001F910F9108951F93CF93DF93C0E4D6E04F
:1014D00010E11E83C6DF1D83DF91CF911F91089518
:1014E0001F93CF93DF93C0E6D6E010E11E83B9DFF0
:1014F0001D83DF91CF911F9108951F93CF93DF93A9
:10150000C0E2D6E018E01E83ACDF1D83DF91CF91EF
:101510001F910895413011F4D6CF0895423011F44F
:10152000DFCF0895433011F4E8CF089580E00895A7
:101530000F931F93CF93DF93082FC0E4D6E010E101
:101540001E8383E070DE802F6EDE80E06CDE1D8304
:10155000DF91CF911F910F9108950F931F93CF9318
:10156000DF93082FC0E6D6E010E11E8383E05BDE48
:10157000802F59DE80E057DE1D83DF91CF911F91D0
:101580000F9108950F931F93CF93DF93082FC0E21D
:10159000D6E018E01E8383E046DE802F44DE80E044
:1015A00042DE1D83DF91CF911F910F91089561302D
:1015B00011F4BECF0895623011F4CFCF0895E2CF79
:1015C0000895FF920F931F93CF93DF93F82E062F6A
:1015D000C0E4D6E010E11E8382E025DE8F2D23DEFD
:1015E000802F21DE1D83DF91CF911F910F91FF90FE
:1015F0000895FF920F931F93CF93DF93F82E062F3A
:10160000C0E6D6E010E11E8382E00DDE8F2D0BDEFA
:10161000802F09DE1D83DF91CF911F910F91FF90E5
:101620000895FF920F931F93CF93DF93F82E062F09
:10163000C0E2D6E018E01E8382E0F5DD8F2DF3DDF9
:10164000802FF1DD1D83DF91CF911F910F91FF90CE
:1016500008951F93CF93DF93E0E4F6E090EA91833F
:1016600090E49283A0E6B6E092E011969C931197E5
:101670009093810698E0918320E1218311962C9329
:101680009093210690ED9093C008662309F47EC0E4
:10169000C82F80E1809345068093650688E080939B
:1016A00025068FE193E00197F1F700C00000C6DD49
:1016B000D3DDE0DD8FE39FE10197F1F700C000008B
:1016C0008FE036DFD82F8FE048DF182F8FE05ADF0A
:1016D000D295D695D770D43009F05AC01295169588
:1016E0001770143009F056C0829586958770843043
:1016F00009F052C08FE193E00197F1F700C00000BC
:1017000060E08AE25EDF60E08AE273DF60E08AE246
:1017100088DF67EE89E255DF67EE89E26ADF67EE10
:1017200089E27FDF61E088E24CDF61E088E261DF2F
:1017300061E088E276DF44E064E080E6DCDD44E0FE
:1017400064E080E6E5DD44E064E080E6EEDD63EA47
:101750008BE237DF63EA8BE24CDF63EA8BE261DF27
:101760004C2F60EE8FE0C7DD4C2F60EE8FE0D0DDB8
:101770004C2F60EE8FE0D9DD82E080936606809387
:10178000860688E08093460681E007C081E005C0B8
:1017900080E003C080E001C080E0DF91CF911F9125
:1017A0000895413011F40DCF0895423011F421CF46
:1017B000089537CF08950F931F93CF93DF93E0E5FC
:1017C000F0E0808182608083818181FFFDCFA0E590
:1017D000B0E016968C911697846016968C931697A7
:1017E000C0E6D0E080E88D838BEB8E8380EC91E0C7
:1017F00022E0FC012287EDE1F0E0E491EA83ECE1F4
:10180000F0E0E491EB83FC01128681E08883E0E75D
:10181000F0E085E1808383E0818394E5938393E521
:10182000948390E59583809321068BEC12968C939C
:1018300012978C9188608C93E0E5F0E0818183FFC2
:10184000FDCFE0E5F0E082EC8583808180618083DC
:10185000818184FFFDCF88ED84BF34E03093400068
:10186000E0E0FAE081E0808393E1918341E050E0A1
:1018700040A751A746A357A380938106A0E4B6E0F2
:1018800093E019969C931997E0E6F6E02FE0218704
:1018900082872BE1208B40E24387258B1A963C936D
:1018A0001A9750962C93E0E4F8E0808320EC32E124
:1018B00026A337A39683E0E0F8E0808320E83BEBA3
:1018C00026A337A396838093260608E710E0C0E29C
:1018D000D6E0F801808183FF04C061E080E0B9DEDA
:1018E00003C061E080E0B5DE882329F1E0E2F6E0A4
:1018F00085818160858325E888ED90E0A2EAB0E0EB
:101900001BBEFD0184BF20832BBE80E0D9DB63E2D8
:1019100071E287E090E20E946B0393E088ED08B6E5
:1019200018BE84BF909380008091820081FDFCCF1F
:1019300008BE78940DC08D8182608D83FFEF29EF02
:1019400080E0F15020408040E1F700C00000C1CFAE
:10195000DF91CF911F910F9108950895089587E029
:1019600090E20E94390290913121892380933121A4
:10197000089587E090E20C947F030895CF93C62FDB
:1019800040912121262F30E0240F311D29373105C8
:1019900064F470E023E231E241E050E066D38091EC
:1019A0002121C80FC093212109C023E231E241E087
:1019B00050E062E070E08DEA90E257D3CF91089555
:1019C000FADE809132218111FCCF80912021882381
:1019D000C1F31092202180910520909106206FEB99
:1019E00070E2845691090E94ED0167E180EB90E27C
:1019F000C5DFE7CF109227251092282587E090E2D7
:101A00000E94FB028093D9259093DA258091D925F5
:101A10009091DA2599230CF457C08091D9259091A3
:101A2000DA2580349105E1F02CF4009751F0C0974D
:101A3000E1F12AC08A35910521F08F3F9105B9F077
:101A400023C02FEF87EA91E6215080409040E1F7D4
:101A500000C0000088ED84BF81E08093790025C03C
:101A60009091322181E0891B809332211EC088EC45
:101A700090E2809364249093652482E190E08093C7
:101A800027259093282511C0EBEDF0E2E093642424
:101A9000F093652489E190E0809327259093282591
:101AA0008091D9259091DA25868B80912725909178
:101AB0002825892B49F06091272570912825809150
:101AC0006424909165245ACF08951F920F920FB607
:101AD0000F9211242F933F934F935F936F937F93B4
:101AE0008F939F93AF93BF93EF93FF93A8958091AC
:101AF0000020909101200196809300209093012076
:101B000080912221811101C075DF87E090E20E945F
:101B1000E1020E94440580912121813418F4109241
:101B2000212105C080912121805480932121809121
:101B3000022090910320019780930220909303202C
:101B40008091022090910320892BC1F482E0809340
:101B5000260688EE93E0809302209093032081E094
:101B600080932021809104208150809304208091D3
:101B70000420811103C08AE080930420FF91EF913B
:101B8000BF91AF919F918F917F916F915F914F9195
:101B90003F912F910F900FBE0F901F90189590912D
:101BA0001E2180911F219817F1F080E3C1DC83FD95
:101BB0001AC060911F2181E0860F80931F218BE066
:101BC000689FB0011124675D7A4D80E023DC80E0DE
:101BD000C8DB90911F2180911E21981304C01092A0
:101BE0001E2110921F210895EF92FF920F931F93D1
:101BF000CF93DF93CDB7DEB72B97CDBFDEBFE982A2
:101C0000FA820B831C832D833E834F835887698719
:101C10007A878B87A0911E2181E08A0F80931E21F5
:101C20009BE0A99FD0011124A75DBA4D9BE0FE0166
:101C3000319601900D929A95E1F7803118F08FE07E
:101C400080931E21ACDF2B96CDBFDEBFDF91CF91FD
:101C50001F910F91FF90EF90089590911C2180911A
:101C60001D219817F1F080E378DC83FD1AC06091A4
:101C70001D2181E0860F80931D218BE0689FB001BC
:101C8000112469587B4D80E0D2DB80E077DB9091B6
:101C90001D2180911C21981304C010921C211092C8
:101CA0001D210895EF92FF920F931F93CF93DF931F
:101CB000CDB7DEB72B97CDBFDEBFE982FA820B83AB
:101CC0001C832D833E834F83588769877A878B8750
:101CD000A0911C2181E08A0F80931C219BE0A99F89
:101CE000D0011124A958BB4D9BE0FE013196019013
:101CF0000D929A95E1F7803118F08FE080931C21C6
:101D0000ACDF2B96CDBFDEBFDF91CF911F910F913E
:101D1000FF90EF900895AF92BF92CF92DF92EF9233
:101D2000FF920F931F93CF93DF93CDB7DEB7A397A7
:101D3000CDBFDEBFB82E88E1E2E0F1E2DE011C9605
:101D400001900D928A95E1F722E0B21203C082E37E
:101D50008C8705C083E0B81202C083E38C876B2DAB
:101D60008CE225DCA82E837009F463C0A0FE0CC0B1
:101D70004B2DBE016F5F7F4F80E9CCDB2B2D40E008
:101D800061E08CE297DA0BC04B2DBE016F5F7F4F95
:101D900084E9C0DB2B2D40E062E08CE28BDA8981A4
:101DA0009A818C3D914031F485E890E08093052044
:101DB00090930620809122208823D9F181E0B812E7
:101DC0000DC0E980FA800B811C812D813E814F81FD
:101DD000588569857A858B8565DF0CC0E980FA8036
:101DE0000B811C812D813E814F81588569857A85C3
:101DF0008B85FADE809132218823D9F049815A817E
:101E000060E070E0CE010E960E945F01C980DA802A
:101E1000EB80FC800D811E812F81388549855A8594
:101E20006B85CE0142960E94960167E1CE010C9629
:101E3000A5DD8A2D807A11F16B2D8DE2B8DB182F8C
:101E4000807C81F04B2D60E08DE2ABDCE5EFF0E2D1
:101E5000E0936424F093652480E38B0D83836CE02E
:101E6000CF018CDD112319F082E0809325066A2DC5
:101E7000607E21F02B2D40E08CE21CDA10922221B2
:101E8000A396CDBFDEBFDF91CF911F910F91FF9041
:101E9000EF90DF90CF90BF90AF9008951F920F9278
:101EA0000FB60F9211242F933F934F935F936F932D
:101EB0007F938F939F93AF93BF93EF93FF9381E0B3
:101EC0008093222128DFFF91EF91BF91AF919F91E5
:101ED0008F917F916F915F914F913F912F910F90D3
:101EE0000FBE0F901F9018951F920F920FB60F9272
:101EF00011242F933F934F935F936F937F938F930F
:101F00009F93AF93BF93EF93FF9381E08093222140
:101F100082E001DFFF91EF91BF91AF919F918F918F
:101F20007F916F915F914F913F912F910F900FBED5
:101F30000F901F9018951F920F920FB60F921124B9
:101F40002F933F934F935F936F937F938F939F93C1
:101F5000AF93BF93EF93FF9381E08093222183E0BF
:101F6000DADEFF91EF91BF91AF919F918F917F91B9
:101F70006F915F914F913F912F910F900FBE0F90F6
:101F80001F90189590911A2180911B219817F1F0BC
:101F900080E3F8DA83FD1AC060911B2181E0860F8F
:101FA00080931B218BE0689FB0011124635D7B4D02
:101FB00080E04ADA80E0EFD990911B2180911A21CC
:101FC000981304C010921A2110921B2108951F9299
:101FD0000F920FB60F9211242F933F934F935F935D
:101FE0006F937F938F939F93AF93BF93EF93FF93E1
:101FF000D6DD33DEC7DFFF91EF91BF91AF919F91A7
:102000008F917F916F915F914F913F912F910F90A1
:102010000FBE0F901F901895AA1BBB1B51E107C064
:10202000AA1FBB1FA617B70710F0A61BB70B881F68
:10203000991F5A95A9F780959095BC01CD010895F7
:10204000EE0FFF1F0590F491E02D0994A29FB001BF
:10205000B39FC001A39F700D811D1124911DB29FDC
:10206000700D811D1124911D0895A0E0B0E0EAE3F8
:10207000F0E133C05B014A017901D90113962C913B
:1020800021FF1DC0C0E0D0E0C815D905D9F08C01F2
:102090006C01CA0CDB1CC8010C151D0571F00F5F2B
:1020A0001F4FD7011896ED91FC911997B701DC01EC
:1020B0008C910995892B79F305C02196E5CF80E0B5
:1020C00090E001C0CE01CDB7DEB7ECE01FC02F928B
:1020D0003F924F925F926F927F928F929F92AF92B8
:1020E000BF92CF92DF92EF92FF920F931F93CF9305
:1020F000DF93CDB7DEB7CA1BDB0BCDBFDEBF0994C4
:102100002A88398848885F846E847D848C849B8487
:10211000AA84B984C884DF80EE80FD800C811B8195
:10212000AA81B981CE0FD11DCDBFDEBFED010895CB
:04213000F894FFCF51
:10213400010001000140010083400000010440004F
:1021440000018208000001000000000000000000FF
:102154000000011603430041004E002D006200728E
:1021640000690064006700650000001C0345006D01
:102174000069006C00650020004E0069006A00736D
:1021840000730065006E0000000403090409023EA8
:1021940000020100C00A0904000001020201000556
:1021A4002400100104240206052406000107058208
:1021B400030800FF09040100020A000000070504E7
:1021C40002400005070583024000051201100102C8
:1021D400000008EB03442001000102DC01580A005E
:1021E400536C6F77206368617267696E673A203059
:1021F40030302E306B570A004D555853414E204312
:10220400414E206272696467650A00556E726563A7
:102214006F676E697A656420436F6D6D616E643AB1
:102224002020200A0043414E58205258204F564641
:102234000A00317C2020207C202020202020202007
:0A22440020202020202020200A0086
:00000001FF
